:0400000002004B327D
:03000B000200F5FB
:0100130032BA
:01001B0032B2
:0100230032AA
:01002B0032A2
:01003300329A
:03003B000201D7E8
:0300430002031C99
:1000A40090010BE4F075220075233875240D752535
:1000B40001754600754700754800754900754A008A
:1000C400754B00754C00754D00754E00754F0075ED
:0800D4005000755100020046C6
:0300460002098D1F
:1000DC0075E10075E206C2AF900064120AAB85228E
:1000EC008285238312004980FEC0E0C0D0758CF855
:1000FC00758A300526E4B5260C0527B52707052893
:10010C00B528020529D0D0D0E032E582FF24FB408F
:10011C0017E5C354F8FEEF240EF582E43401F583A1
:10012C00E04EF5C37582012275820022E582F4FF50
:10013C005293EF529243C3107F00900109E4F0A355
:10014C00F08F82C007120116D0077E058E051EEDBA
:10015C00602F7C007D00E5C320E70C0CBC00010D7A
:10016C00EC4D70F2F58222900109E0FCA3E0FDE574
:10017C00C42CFCE5C53DFD900109ECF0EDA3F0802D
:10018C00CBEF75F002A42400FD740135F0FE900154
:10019C0009E0FBA3E0FC8B828C83750805750900D4
:1001AC00C007C006C005120AE7AB82AC83D005D0ED
:1001BC0006D0078D828E83EBF0ECA3F00FBF04000A
:1001CC005003020146D2E975820122C021C0E0C071
:1001DC00F0C082C083C007C006C005C004C003C005
:1001EC0002C001C000C0D075D000AEC4AFC5900134
:1001FC000BE0FD75F002A42400F582740135F0F5D6
:10020C0083E0FBA3E0FCEB249CFBEC34FFFCC3EE93
:10021C009BEF9C5020ED240EF582E43401F583E035
:10022C0014F5F005F07401800225E0D5F0FBFF9089
:10023C000108E04FF090010BED04F0E0FFBF04006B
:10024C00400590010BE4F090010BE0F582120116D1
:10025C00D0D0D000D001D002D003D004D005D0062D
:10026C00D007D083D082D0F0D0E0D0213275A15508
:10027C0075A1AA43B1102243D104900002120AAB1B
:10028C0053D1FB22C2EA75E2007E0A7F008EE48F16
:10029C00E574FE55EB4404F5EB75D4127E007F003B
:1002AC008EEC8FED53EAF375DC027E507F008EEE00
:1002BC008FEF74EF55EA4440F5EA75D21275E300FE
:1002CC0075D18075E22943D10175D8FF75E107D24C
:1002DC00EA2275084A750900750A40750B08750CF9
:1002EC000090005075F000120B5075D30853D2FCDF
:1002FC0022750846750900750A40750B04750C00CB
:10030C0090000A75F000120B5075D50453D4FC22E2
:10031C00C021C0E0C0F0C082C083C007C006C005C9
:10032C00C004C003C002C001C000C0D075D0002002
:10033C00D9030206AC743F55D9FFFEBE000302067A
:10034C008DBF2003020624BF2102801BBF22028026
:10035C0008BF300280220206AA75D50074FC55D461
:10036C004402F5D40206AA75D30074FC55D244029B
:10037C00F5D27536010206AAAFDBBF080280030274
:10038C000602900006E0F533900007E07006E533B6
:10039C002480500375337F7F00900001E0F532908C
:1003AC000000E0FE546060357401B53203020604AF
:1003BC007402B532030206047403B5320302060458
:1003CC007409B53203020604740AB532030206043A
:1003DC00740BB532030206047FFF020604E53224D7
:1003EC00F550030205FEE532240B83F582E5322439
:1003FC000F83F583E473E7E8FE36FEC218FECBDF0D
:10040C00040504050505040405040406900003E036
:10041C00FEBE0102800ABE02028012BE224B801A6E
:10042C007538E075390B753A807E12803E7538F25E
:10043C0075390B753A807E3B8031900004E0700D6D
:10044C0075382D75390C753A807E3E801E900004EF
:10045C00E0FDBD011075386B75390C753A807E3432
:10046C0075340180067EFF80027EFFC3EE9533500B
:10047C00028E33C3E5339408920040067D087E005B
:10048C008004AD337E008D07853808853909853A9F
:10049C000A8F0B750C0090000075F000C007120B52
:1004AC0050D007E533C39FF533EF2538F538E435E5
:1004BC0039F539020604900002E0F5330206049087
:1004CC000000E537F074FF253340030206047F017A
:1004DC00020604900002E0F537020604900000E0EA
:1004EC00FE53061F7D00BE0230BD002D900004E0BF
:1004FC00FEBE0102801CBE8102800DBE821974BC3E
:10050C0055D44402F5D4801174BC55D24402F5D2B2
:10051C00800753D27380027FFF900000E0FE541FCF
:10052C0070030206047FFF020604900000E0541FD3
:10053C00702F900003E0FD7E00900002E0FC7B0039
:10054C004206EB4205BE0114BD0011900BF9E49379
:10055C00FE30E5030206047FFF0206047FFF02065D
:10056C0004900000E0FE53061F7D00BE0269BD0032
:10057C0066900003E0FD7E00900002E0FC7B0042F0
:10058C0006EB4205EE4D704B900005E0FD7E0090B1
:10059C000004E0FC7B004206EB4205BE0205BD00F8
:1005AC00028018BE8105BD0002801ABE8221BD00EA
:1005BC001E74BF55D44403F5D4803D747F55D44488
:1005CC000CF5D4803374BF55D24403F5D280297F07
:1005DC00FF80257FFF80217FFF801D900000E4F0CD
:1005EC00900001F074FE253350047F02800AAF3373
:1005FC0080067FFF80027FFFBFFF097532FF75DC2D
:10060C00CF0206AAEF60088FDD75DCC00206AA7562
:10061C00DD0075DCC00206AA7405B53202804A748E
:10062C0006B53255C3E5339408920040067E087F28
:10063C00008004AE337F00853808853909853A0A75
:10064C008E0B750C0090000075F000C006120B505C
:10065C00D006E533C39EF533EE2538F538E435394D
:10066C00F5398EDD63DC408035E5E35480FFE533FE
:10067C00FE4FF5E375DC02802575DD0075DC02802C
:10068C001DE5DB7409B53213900000E0600575457B
:10069C00018008900000E07002F54563DC80C2D94F
:1006AC0030D81275DC0275D21075D41275E300C205
:1006BC00DAC2D9C2D810DA028004E5DA800375D820
:1006CC00FFD0D0D000D001D002D003D004D005D0C0
:1006DC0006D007D083D082D0F0D0E0D02132AD82CA
:1006EC00120BC0FF7E00BF6100400DEF2485400857
:1006FC008F0574E02DFF7E01BF41004015EF24A54E
:10070C004010EE7003754A028F0674C32EF54C022E
:10071C00090DBF31004012EF24C6400D754A008F01
:10072C000674ED2EF54C02090DBF090302090ABF30
:10073C000D0302080DBF2003020813BF210302089A
:10074C00AABF2203020867BF23030208BABF24030F
:10075C000208C2BF25030208CABF26030208DABF7B
:10076C002703020861BF28030208EABF2903020815
:10077C00F2BF2A030208E2BF2B030208FABF2C03C4
:10078C0002087FBF2D03020819BF2E0302088EBF7B
:10079C002F0302089DBF30028061BF3A0302085844
:1007AC00BF3B03020852BF3C03020885BF3D0280D9
:1007BC0062BF3E03020894BF3F030208A2BF40037E
:1007CC000208B2BF5B028051BF5C02806ABF5D024F
:1007DC008056BF5E030208D2BF5F03020902BF60EE
:1007EC0003020870BF7B028036BF7C02804FBF7D46
:1007FC0002803BBF7E02807202090D754C270209F4
:10080C000D754C2802090D754C2C02090D754C2DDB
:10081C0002090D754C2E02090D754C2F02090D7530
:10082C004A02754C2F02090D754C3002090D754AA0
:10083C0002754C3002090D754C3102090D754A02D6
:10084C00754C3102090D754C3302090D754A027550
:10085C004C3302090D754C3402090D754A02754C66
:10086C003402090D754C3502090D754A02754C356B
:10087C0002090D754C3602090D754A02754C36028B
:10088C00090D754C3702090D754A02754C37020972
:10089C000D754C38806B754A02754C388063754AFF
:1008AC0002754C1E805B754A02754C1F8053754A4D
:1008BC0002754C20804B754A02754C218043754A59
:1008CC0002754C22803B754A02754C238033754A65
:1008DC0002754C24802B754A02754C258023754A71
:1008EC0002754C26801B754A02754C278013754A7D
:1008FC0002754C2E800B754A02754C2D8003754C7D
:10090C002B90000A120AABE53660FC1202DEE536CB
:10091C0060FC90000A120AAB754A00754C00E53673
:10092C0060FC1202DEE53660FC2290010CE0FFBF99
:10093C00012AAD24AE257F008D828E838FF01206A6
:10094C00EA0524E4B524020525AE24AF258E828F5A
:10095C0083E0702C90010CE4F0F5442274FC55D229
:10096C004402F5D274FC55D44402F5D47401B54458
:10097C000F75440075240D75250190010C7401F060
:10098C0022120A7B900006120AABC29FD29EC29D15
:10099C00C2CDC2CC438780740F55894420F589435E
:1009AC00C9A0758D64D28ED299D29C120290758298
:1009BC0030120138758200120116758911758CF888
:1009CC00758A30D28CD2A9D2AF75D30075D500758B
:1009DC003600753400754400E526C3952AFCE527DE
:1009EC00952BFDE528952CFEE529952DFFC3742844
:1009FC009CE49DE49EE49F50DF85262A85272B8569
:100A0C00282C85292DE53460CF20B21575089F75EB
:100A1C00090C750A8090010D75F000120B107544CD
:100A2C000120B4157508A575090C750A8090010D87
:100A3C0075F000120B1075440120B3157508AE75D6
:100A4C00090C750A8090010D75F000120B1075449D
:100A5C000120B1157508B775090C750A8090010D48
:0F0A6C0075F000120B107544011209360209E4EF
:100BE00012011001000000083D4107210000000033
:100BF000000109023B00020100A0320904000001CB
:100C000003010100092111010001223E00070581B5
:100C10000308000A09040100010301020009211070
:100C20000100012234000705820304000A050109BE
:100C300006A101050719E029E715002501750195B1
:100C40000881029501750881019503750105081950
:100C500001290391029505750191019506750826F4
:100C6000FF000507190029918100C005010902A1B3
:100C7000010901A1000509190129031500250175C4
:100C8000019503810275059501810105010930096E
:100C90003109381581257F750895038106C0C04349
:100CA00072616967005361756E64657273004973A0
:100CB00020636F6F6C21004161426243634464456D
:100CC0006546664767486849694A6A4B6B4C6C4D94
:100CD0006D4E6E4F6F507051715272537354745504
:100CE0007556765777587859795A7A313233343580
:100CF00036373839302E2C3F2F5B5D7B7D214023EA
:100D0000245E262A28295F2D2B3D607E0D092200B6
:060D1000000003040000D6
:100A7B0075A15575A1AA74F855B94406F5B975A1B8
:100A8B000022AE82AF83EE4F601505A105A105A133
:100A9B0005A105A105A105A11EBEFF011F80E7222F
:100AAB00AE82AF83EE4F60159003E8C007C006120D
:100ABB000A8DD006D0071EBEFF011F80E722AE8233
:100ACB00AF8310990280FB8E998E828F83221098B0
:100ADB000280FBAE997F008E828F83227A10E4FB1B
:100AEB00FCE58225E0F582E58333F583EB33FBEC04
:100AFB0033FCEB9508F5F0EC95094006FCABF043A5
:100B0B008201DADD2285820B85830C85F00DAA0824
:100B1B00AB09AC0AA80BA90CAF0D8A828B838CF0A6
:100B2B00120BC0FEA3AA82AB83888289838FF0EE5F
:100B3B00120BA5A3A882A983EE70DF850B82850C0F
:050B4B0083850DF0227E
:06007A00E478FFF6D8FD5A
:100B5000AD82AE83AFF08D0D8E0E8F0F85081085A0
:100B60000911850A12A80BA90C8803890418B8FF7B
:100B70000119EB4C60258510828511838512F012D6
:100B80000BC0FCA38582108583118D828E838FF02C
:100B9000EC120BA5A3AD82AE8380CE850D82850EAF
:050BA00083850FF02227
:100058007906E94400601B7A01900D10780C75A0B0
:1000680001E493F2A308B8000205A0D9F4DAF27506
:02007800A0FFE7
:100BA50020F71130F6138883A88220F509F6A8836B
:0B0BB5007583002280FEF280F5F02224
:100080007800E84400600A790075A001E4F309D81B
:10009000FC780CE84400600C7901900100E4F0A3C6
:0400A000D8FCD9FAB5
:0F004900E473758151120BDCE5826003020046FF
:100BC00020F71430F6148883A88220F507E6A8835E
:100BD00075830022E280F7E49322E02275820022EE
:00000001FF
